:1003F60001191E011A1E011C00011D000118000131
:080406001B00011F01011E0093
:10025F0012045620B7207F147E0012046E30B7FDB3
:10026F007F147E0012046EE51E70047F0180027FF2
:10027F00008F1E751801E5186401704BF51DE51E02
:10028F00701FAF191204C5E5192403FF1204DA1207
:10029F00050E12052012052C12000E12051A12055A
:1002AF0035E51EB401ADE51A2403FF1204C5AF1ADC
:1002BF001204DA1205291200061205111205231273
:1002CF00051A120535808CE5187088AD1AAF191212
:0502DF0000160202629E
:03000B000202E40A
:1002E400C0E0C0F0C083C082C0D075D000C000C0E0
:1002F40001C002C003C004C005C006C007120358F1
:100304008F1F051CE51CB41405751C00051DE51F95
:10031400601424FE601514601724027016AD1AAF21
:1003240019120109800D120486800812049B8003AF
:100334001204B0758C3C758AB0D007D006D005D0B5
:1003440004D003D002D001D000D0D0D082D083D04A
:04035400F0D0E032D3
:03000300020424D0
:10042400C0E0C0D020B20DE51E70020519E51EB46F
:090434000102051AD0D0D0E0321B
:0300130002043DA7
:10043D00C0E0C0D020B30DE51E70021519E51EB445
:09044D000102151AD0D0D0E032F2
:10045600758901758C3C758AB0D28CD2A9D288D2A6
:08046600A8D28AD2AAD2AF226B
:04046E00EF4E6013DA
:100472007525027526C7D526FDD525FAEF1F70EC26
:010482001E5B
:0304830080E922EB
:03000600C2A02273
:03000E00D2A0225B
:03050B00B2A02279
:03050E00C2A12265
:03051100D2A12252
:03051400B2A1226F
:03051700C2A2225B
:03051A00D2A22248
:03051D00B2A22265
:0E04EF00E51C75F00584E5F0700312051D2272
:03052000C2A32251
:03052300D2A3223E
:03052600B2A3225B
:03052900C2A42247
:03052C00D2A42234
:03052F00B2A42251
:03053200C2A5223D
:03053500D2A5222A
:03053800B2A52247
:0E04FD00E51C75F00584E5F070031205382249
:03040E00012703C0
:100016008F228D23E51DC395225005C3E52280213D
:10002600E51DC39522402BE5222527FFE433FEC3B9
:10003600E51D9FEE6480F87480985016E52225270A
:10004600C3951DFF1204C5E5222527C3951DFF1282
:1000560004DAE5222527FFE433FEAD1D7C00C3ED5F
:100066009FEE6480F87480984039E5232522FFE4EA
:1000760033FE7A00EF2527FFEA3EFEC3ED9FEE64CE
:1000860080F8748098501CE522252725232527C350
:10009600951DFF1204C5E52325272522C3951DFFBF
:1000A6001204DAE5222527FFE433FE7C00EF252340
:1000B600FFEC3EFEAD1DC3ED9FEE6480F8748098A4
:1000C6004040E52775F002A47A002522FFEA35F0C4
:1000D600FEEF2523FFEA3EFEC3ED9FEE6480F87433
:1000E6008098501EE52725E025222523C3951DFF70
:1000F6001204C5E52725E025222523C3951DFF12F9
:0301060004DA22F6
:100109008F208D21E51D14701212050E12052C1277
:10011900052012000E12051A120535E520D3951D8A
:10012900501BE5202527FFE433FED3E51D9FEE6430
:1001390080F874809850061205111204EFE5202505
:1001490027FFE433FE7C00EFB51D10ECB5060C1259
:10015900051A120006120523120529E5202527FF95
:10016900E433FE7C00EF2521FFEC3EFED3EF951D25
:100179007480F86E98502CAF277E00E5202FFDEC97
:1001890033FC7A00ED2521FDEA3CCD2FFFEE3DFE43
:10019900D3E51D9FEE6480F8748098500612052CF3
:1001A9001204FDAF277E00E5202FFDE433FC7A0021
:1001B900ED2521FDEA3CCD2FFFEE3DFE7C00EFB59C
:0A01C9001D07ECB50603E4F51D2246
:10048600E4F51D12000E12052312051112052C1299
:0504960004FD0204EF6B
:10049B00E4F51D12050E12052012000E12052C128A
:0504AB00053502051AF1
:1004B000E4F51D120529120006120523120511127A
:0504C000053502051ADC
:100411001008C0F9A4B0999282F880908883C6A18F
:02042100868EC5
:0603AC0075F00A84ADF0BB
:1003B200EF24F4601124F7601714601E240B7022DE
:1003C200C295D2948004D295C294C296C2978012EA
:1003D200C294C295C296D2978008C294C295D29610
:1003E200C29774082DF8E6F5807F017E0012046E34
:0403F2007580FF22F1
:1004C5008F24E5247F0B1203ACE52475F00A84FD27
:0504D5007F0C0203B2E0
:1004DA008F24E5247F151203ACE52475F00A84FD08
:0504EA007F160203B2C1
:100358002090147F147E0012046E3090FD7F147E6E
:100368000012046E751F022091147F147E0012047F
:100378006E3091FD7F147E0012046E751F0320926B
:10038800207F147E0012046E3092FD7F147E0012CE
:10039800046EE51F70047F0180027F008F1FE4F563
:0403A80018AF1F2249
:030000000201D327
:0C01D300787FE4F6D8FD75812702021A3F
:1001DF0002025FE493A3F8E493A34003F68001F2D5
:1001EF0008DFF48029E493A3F85407240CC8C33321
:1001FF00C4540F4420C8834004F456800146F6DFF0
:10020F00E4800B01020408102040809003F6E47E86
:10021F00019360BCA3FF543F30E509541FFEE493E4
:10022F00A360010ECF54C025E060A840B8E493A3AB
:10023F00FAE493A3F8E493A3C8C582C8CAC583CAD6
:10024F00F0A3C8C582C8CAC583CADFE9DEE780BE8E
:0104230000D8
:00000001FF
