:1004480001261E01271E012900012A00012500019D
:080458002800012C01012B001A
:1001010012053220B7207F147E001204B130B7FDF2
:100111007F147E001204B1E52B70047F0180027F01
:10012100008F2B752501E525640160030201DBF5D4
:100131002AE52B704BAF26120508E5262403FF1292
:10014100051D12056812057A12058612056212054F
:100151007412058F2092137F147E001204B1309225
:10016100FD7F147E001204B115262093137F147EA7
:10017100001204B13093FD7F147E001204B10526F4
:10018100E52B64016003020104E5272403FF120546
:1001910008AF2712051D12058312000612056B1206
:1001A100057D12057412058F2092137F147E0012B3
:1001B10004B13092FD7F147E001204B115273093F3
:1001C100030201047F147E001204B13093FD7F14F9
:1001D1007E001204B10527020104E5256003020136
:0B01E10004AD27AF2612000E0201043F
:03000B0002034E9F
:10034E00C0E0C0F0C083C082C0D075D000C000C075
:10035E0001C002C003C004C005C006C007120417C6
:10036E008F2C0529E529B41405752900052AE52CDD
:10037E00601F24FE602014602224027021751B0071
:10038E00751C00751D277B007A0079261201EC8002
:10039E000D1204C980081204DE80031204F3758C5A
:1003AE003C758AB0D007D006D005D004D003D00259
:0F03BE00D001D000D0D0D082D083D0F0D0E032A8
:030003000204767E
:10047600C0E0C0D075D000C00720B20FE52C7004D4
:100486007F0180027F008F2C752500D007D0D0D049
:02049600E03252
:10053200758901758C3C758AB0D28CD2A9D288D2C9
:04054200A8D2AF226A
:0404B100EF4E601397
:1004B5007523027524C7D524FDD523FAEF1F70ECEB
:0104C5001E18
:0304C60080E922A8
:03000600C2A02273
:03056200D2A02202
:03056500B2A0221F
:03056800C2A1220B
:03056B00D2A122F8
:03056E00B2A12215
:03057100C2A22201
:03057400D2A222EE
:03057700B2A2220B
:0E054600E52975F00584E5F0700312057722B3
:03057A00C2A322F7
:03057D00D2A322E4
:03058000B2A32201
:03058300C2A422ED
:03058600D2A422DA
:03058900B2A422F7
:03058C00C2A522E3
:03058F00D2A522D0
:03059200B2A522ED
:0E055400E52975F00584E5F07003120592228A
:03046000012D0368
:10000E008F208D21E52AC395205005C3E520802140
:10001E00E52AC39520402BE520252DFFE433FEC3B2
:10002E00E52A9FEE6480F87480985016E520252D01
:10003E00C3952AFF120508E520252DC3952AFF1228
:10004E00051DE520252DFFE433FEAD2A7C00C3ED12
:10005E009FEE6480F87480984039E5212520FFE4F6
:10006E0033FE7A00EF252DFFEA3EFEC3ED9FEE64D0
:10007E0080F8748098501CE520252D2521252DC350
:10008E00952AFF120508E521252D2520C3952AFF67
:10009E0012051DE520252DFFE433FE7C00EF252102
:1000AE00FFEC3EFEAD2AC3ED9FEE6480F87480989F
:1000BE004040E52D75F002A47A002520FFEA35F0C8
:1000CE00FEEF2521FFEA3EFEC3ED9FEE6480F8743D
:1000DE008098501EE52D25E025202521C3952AFF69
:1000EE00120508E52D25E025202521C3952AFF12AE
:0300FE00051D22BB
:1001EC00120498F51EAB1BAA1CA91D120498F51F2E
:1001FC00E52A14701212056812058612057A12058A
:10020C006212057412058FE51ED3952A501BE51E4C
:10021C00252DFFE433FED3E52A9FEE6480F874802D
:10022C0098500612056B120546E51E252DFFE4338A
:10023C00FE7C00EFB52A10ECB5060C12057412000A
:10024C000612057D120583E51E252DFFE433FE7C89
:10025C0000EF251FFFEC3EFED3EF952A7480F86E5D
:10026C0098502CAF2D7E00E51E2FFDEC33FC7A0050
:10027C00ED251FFDEA3CCD2FFFEE3DFED3E52A9F79
:10028C00EE6480F87480985006120586120554AFFF
:10029C002D7E00E51E2FFDE433FC7A00ED251FFDBD
:1002AC00EA3CCD2FFFEE3DFE7C00EFB52A07ECB506
:0502BC000603E4F52A31
:0102C100221A
:1004C900E4F52A12056212057D12056B12058612E2
:0504D900055402054678
:1004DE00E4F52A12056812057A12056212058612D3
:0504EE00058F020574FA
:1004F300E4F52A12058312000612057D12056B121C
:05050300058F020574E4
:100463001008C0F9A4B0999282F880908883C6A13D
:02047300868E73
:0603CD0075F00A84ADF09A
:1003D300EF24F4601124F7601714601E240B7022BD
:1003E300C295D2948004D295C294C296C2978012C9
:1003F300C294C295C296D2978008C294C295D296EF
:10040300C29774082DF8E6F5807F017E001204B1CF
:040413007580FF22CF
:100508008F22E5227F0B1203CDE52275F00A84FDC8
:050518007F0C0203D37B
:10051D008F22E5227F151203CDE52275F00A84FDA9
:05052D007F160203D35C
:100417002090147F147E001204B13090FD7F147E6B
:10042700001204B1752C022091147F147E0012046F
:10043700B13091FD7F147E001204B1752C03AF2CEF
:010447002292
:030000000202C237
:0C02C200787FE4F6D8FD75812D02030959
:10049800BB010689828A83E0225002E722BBFE0262
:0904A800E32289828A83E4932295
:1002CE00020101E493A3F8E493A34003F68001F244
:1002DE0008DFF48029E493A3F85407240CC8C33331
:1002EE00C4540F4420C8834004F456800146F6DF00
:1002FE00E4800B0102040810204080900448E47E44
:10030E00019360BCA3FF543F30E509541FFEE493F4
:10031E00A360010ECF54C025E060A840B8E493A3BB
:10032E00FAE493A3F8E493A3C8C582C8CAC583CAE6
:10033E00F0A3C8C582C8CAC583CADFE9DEE780BE9E
:010475000086
:00000001FF
